:020000040800F2
:1000000000000220FD2A0008112600081926000819
:1000100021260008292600083126000800000000DB
:100020000000000000000000000000003926000869
:100030004726000800000000552600086326000837
:100040004D2B00084D2B00084D2B00084D2B0008B0
:100050004D2B00084D2B00084D2B00084D2B0008A0
:100060004D2B00084D2B00084D2B00084D2B000890
:100070004D2B00084D2B00084D2B00084D2B000880
:100080004D2B00084D2B0008712600084D2B000851
:100090004D2B00084D2B00084D2B00084D2B000860
:1000A0004D2B00084D2B00084D2B00084D2B000850
:1000B0004D2B00084D2B00084D2B00084D2B000840
:1000C0004D2B00084D2B00084D2B00084D2B000830
:1000D0004D2B0008852600084D2B00084D2B0008ED
:1000E0004D2B00084D2B00084D2B00084D2B000810
:1000F0004D2B00084D2B00084D2B00084D2B000800
:100100004D2B00084D2B00084D2B00084D2B0008EF
:100110004D2B00084D2B00084D2B00084D2B0008DF
:1001200099260008AD2600084D2B00084D2B00082D
:100130004D2B00084D2B00084D2B00084D2B0008BF
:100140004D2B00084D2B00084D2B00084D2B0008AF
:100150004D2B00084D2B0008C12600084D2B000830
:100160004D2B00084D2B00084D2B00084D2B00088F
:100170004D2B00084D2B00084D2B000800000000FF
:080180004D2B00084D2B000877
:1001900010B5054C237833B9044B13B10448AFF3C1
:1001A00000800123237010BD7000002000000000BB
:1001B0007483000808B5034B1BB103490348AFF330
:1001C000008008BD00000000740000207483000857
:1001D00010F8012B11F8013B012A28BF9A42F7D0F1
:1001E000D01A70470000000000000000000000006E
:1001F00001F0FF01102A2BDB10F0070F08D010F8D8
:10020000013B013A8B422DD010F0070F42B3F6D1DB
:10021000F0B441EA012141EA014122F007047FF0F4
:1002200000070023F0E80256083C85EA010586EA4B
:10023000010685FA47F5A3FA87F586FA47F6A5FA87
:1002400087F68EB9EED1F0BC01F0FF0102F0070293
:1002500032B110F8013B013A83EA010313B1F8D13E
:100260000020704701387047002D06BF354603381F
:10027000073815F0010F07D1013015F4807F02BF58
:10028000013015F4C03F0130F0BC0138704700BFA9
:1002900070B54FF0FF0C4CF4E06C1CEA11541DBF1C
:1002A0001CEA135594EA0C0F95EA0C0F00F0DEF8E7
:1002B0002C4481EA030621EA4C5123EA4C5350EACC
:1002C000013518BF52EA033541F4801143F480131D
:1002D00038D0A0FB02CE4FF00005E1FB02E506F0AE
:1002E0000042E0FB03E54FF00006E1FB03569CF003
:1002F000000F18BF4EF0010EA4F1FF04B6F5007F09
:1003000064F5407404D25FEA4E0E6D4146EB06067A
:1003100042EAC62141EA55514FEAC52040EA5E5003
:100320004FEACE2EB4F1FD0C88BFBCF5E06F1ED8AD
:10033000BEF1004F08BF5FEA500E50F1000041EBE4
:10034000045170BD06F0004646EA010140EA020091
:1003500081EA0301B4EB5C04C2BFD4EB0C0541EAB3
:10036000045170BD41F480114FF0000E013C00F3C8
:10037000AB8014F1360FDEBF002001F0004170BDEC
:10038000C4F10004203C35DA0C341BDC04F1140405
:10039000C4F1200500FA05F320FA04F001FA05F291
:1003A00040EA020001F0004221F0004110EBD3705E
:1003B00021FA04F642EB06015EEA430E08BF20EA8A
:1003C000D37070BDC4F10C04C4F1200500FA04F32D
:1003D00020FA05F001FA04F240EA020001F00041BF
:1003E00010EBD37041F100015EEA430E08BF20EA32
:1003F000D37070BDC4F1200500FA05F24EEA020E7A
:1004000020FA04F301FA05F243EA020321FA04F0A8
:1004100001F0004121FA04F220EA020000EBD3705F
:100420005EEA430E08BF20EAD37070BD94F0000F5F
:100430000FD101F00046400041EB010111F4801F93
:1004400008BF013CF7D041EA060195F0000F18BF44
:10045000704703F00046520043EB030313F4801F80
:1004600008BF013DF7D043EA0603704794EA0C0F3A
:100470000CEA135518BF95EA0C0F0CD050EA410650
:1004800018BF52EA4306D1D181EA030101F00041CD
:100490004FF0000070BD50EA410606BF10461946F5
:1004A00052EA430619D094EA0C0F02D150EA013601
:1004B00013D195EA0C0F05D152EA03361CBF104642
:1004C00019460AD181EA030101F0004141F0FE41E1
:1004D00041F470014FF0000070BD41F0FE4141F465
:1004E000780170BD81F0004102E000BF83F000435D
:1004F00030B54FEA41044FEA430594EA050F08BFBF
:1005000090EA020F1FBF54EA000C55EA020C7FEA82
:10051000645C7FEA655C00F0E2804FEA5454D4EBFF
:100520005555B8BF6D420CDD2C4480EA020281EAC9
:10053000030382EA000083EA010180EA020281EA01
:100540000303362D88BF30BD11F0004F4FEA013153
:100550004FF4801C4CEA113102D0404261EB410162
:1005600013F0004F4FEA03334CEA133302D05242E8
:1005700063EB430394EA050F00F0A780A4F10104A4
:10058000D5F1200E0DDB02FA0EFC22FA05F28018DE
:1005900041F1000103FA0EF2801843FA05F35941C4
:1005A0000EE0A5F120050EF1200E012A03FA0EFC43
:1005B00028BF4CF0020C43FA05F3C01851EBE3716D
:1005C00001F0004507D54FF0000EDCF1000C7EEB8A
:1005D00000006EEB0101B1F5801F1BD3B1F5001FC8
:1005E0000CD349085FEA30004FEA3C0C04F10104E7
:1005F0004FEA445212F5800F80F09A80BCF1004F10
:1006000008BF5FEA500C50F1000041EB045141EA91
:10061000050130BD5FEA4C0C404141EB0101013C5A
:1006200028BFB1F5801FE9D291F0000F04BF014649
:100630000020B1FA81F308BF2033A3F10B03B3F11B
:1006400020020CDA0C3208DD02F1140CC2F10C02AB
:1006500001FA0CF021FA02F10CE002F11402D8BF09
:10066000C2F1200C01FA02F120FA0CFCDCBF41EAD5
:100670000C019040E41AA2BF01EB0451294330BDA4
:100680006FEA04041F3C1CDA0C340EDC04F1140481
:10069000C4F1200220FA04F001FA02F340EA030058
:1006A00021FA04F345EA030130BDC4F10C04C4F19E
:1006B000200220FA02F001FA04F340EA030029467E
:1006C00030BD21FA04F0294630BD94F0000F83F4C8
:1006D000801306BF81F480110134013D4EE77FEAAB
:1006E000645C18BF7FEA655C29D094EA050F08BFF7
:1006F00090EA020F05D054EA000C04BF19461046D8
:1007000030BD91EA030F1EBF0021002030BD5FEA1B
:10071000545C05D14000494128BF41F0004130BD43
:1007200014F580043CBF01F5801130BD01F0004597
:1007300045F0FE4141F470014FF0000030BD7FEA0A
:10074000645C1ABF194610467FEA655C1CBF0B4605
:10075000024650EA013406BF52EA033591EA030F1C
:1007600041F4002130BD00BF90F0000F04BF002114
:10077000704730B54FF4806404F132044FF0000547
:100780004FF0000150E700BF90F0000F04BF0021C0
:10079000704730B54FF4806404F1320410F0004526
:1007A00048BF40424FF000013EE700BF42004FEA21
:1007B000E2014FEA31014FEA02701FBF12F07F439E
:1007C00093F07F4F81F06051704732F07F4208BF55
:1007D000704793F07F4F04BF41F40021704730B55C
:1007E0004FF4607401F0004521F000411CE700BFA8
:1007F00050EA010208BF704730B54FF000050AE02B
:1008000050EA010208BF704730B511F0004502D52B
:10081000404261EB41014FF4806404F132045FEA2D
:10082000915C3FF4D8AE4FF003025FEADC0C18BFD6
:1008300003325FEADC0C18BF033202EBDC02C2F1C8
:10084000200300FA03FC20FA02F001FA03FE40EA5A
:100850000E0021FA02F11444BDE600BF4FEA410246
:1008600012F5001215D211D56FF47873B3EB625202
:1008700012D94FEAC12343F0004343EA505311F029
:10088000004F23FA02F018BF404270474FF00000BB
:10089000704750EA013005D111F0004008BF6FF0F9
:1008A000004070474FF00000704700BF53B94AB98D
:1008B000002908BF00281CBF4FF0FF314FF0FF3068
:1008C00000F088B9ADF1080C6DE904CE00F006F82F
:1008D000DDF804E0DDE9022304B070472DE9F047BC
:1008E000089D8E4604468846002B4AD18A42174608
:1008F00062D9B2FA82F64EB1C6F1200301FA06F8C7
:1009000020FA03F3B74043EA0808B4404FEA174E11
:100910001FFA87FCB8FBFEF1230C0EFB118843EA9B
:10092000084301FB0CF29A4209D9FB1801F1FF3090
:1009300080F0EA809A4240F2E78002393B449A1AFA
:10094000A3B2B2FBFEF00EFB102243EA024300FB0F
:100950000CFC9C4509D9FB1800F1FF3280F0D680D1
:100960009C4540F2D3803B44023840EA0140A3EB6F
:100970000C0300211DB1F3400022C5E90032BDE89F
:10098000F0878B4205D90DB1C5E900010021084669
:10099000F5E7B3FA83F1002946D1734502D38242C9
:1009A00000F20581841A6EEB030201209046002DAF
:1009B000E5D0C5E90048E2E7002A00F09080B2FAED
:1009C00082F6002E40F0A4808A1A030C4FEA174EDC
:1009D00080B2BCB20121B2FBFEFC0EFB1C2243EA3A
:1009E000024304FB0CF29A4207D9FB180CF1FF38C2
:1009F00002D29A4200F2E080C4469B1AB3FBFEF298
:100A00000EFB123340EA034302FB04F49C4207D975
:100A1000FB1802F1FF3002D29C4200F2CA8002466B
:100A20001B1B42EA0C40A5E7C1F120068B4022FACD
:100A300006F71F430EFA01F420FA06F32EFA06FE1B
:100A40004FEA1749234300FA01F81FFA87FCBEFB5F
:100A5000F9F01C0C09FB10EE44EA0E4400FB0CFEFE
:100A6000A64502FA01F209D93C1900F1FF3A80F0DB
:100A70009C80A64540F2998002383C44A4EB0E04C9
:100A80001FFA83FEB4FBF9F309FB13444EEA044456
:100A900003FB0CFCA44508D93C1903F1FF3E80F090
:100AA0008280A4457FD9023B3C4443EA0040A4EB4A
:100AB0000C04A0FB02EC64457346E14662D35FD0B0
:100AC0005DB1B8EB030264EB090404FA06F622FAFE
:100AD00001F31E43CC40C5E9006400214FE7B1FBA0
:100AE000F2FC010C41EA0E4180B240EA01423B4671
:100AF00038463C46B846BE462026B1FBF7F1A2EB8D
:100B0000080241EA0C4166E7014618E710462CE767
:100B1000C6F120022EFA02F3B740B14020FA02F2E9
:100B20004FEA174E0A43B3FBFEF8BCB20EFB183374
:100B3000110C41EA034108FB04F9B04089454FEA32
:100B4000104380B23ED9791808F1FF3C01D28945A3
:100B50001FD8A1EB0901B1FBFEF909FB04F80EFB5C
:100B6000191192B242EA0142424529D2BA1809F15A
:100B7000FF31C4D24245C2D2A9F102013A44BEE7D4
:100B8000F0459DD2BEEB02036CEB070C0138E14649
:100B900096E7A7EB09094944A8F1020CB1FBFEF95D
:100BA00009FB04F8DBE773467FE7504666E7084633
:100BB000FDE63B44023A33E7ACF1020C3B441CE750
:100BC00049469CE7A1EB0901C446B1FBFEF909FBCC
:100BD00004F8C4E7704700BF80B58AB000AF786002
:100BE00007F1140300221A605A609A60DA601A61F1
:100BF0007B681B68334A93425FD100233B61324BD1
:100C00005B6C314A43F4807353642F4B5B6C03F489
:100C100080733B613B690023FB602B4B1B6B2A4AB3
:100C200043F001031363284B1B6B03F00103FB60CC
:100C3000FB6802237B610323BB610023FB6107F197
:100C400014031946214803F05DFA214B214A1A602A
:100C50001F4B00225A601E4B00229A601C4B002240
:100C6000DA601B4B4FF480621A61194B4FF400623B
:100C70005A61174B4FF400529A61154B4FF4807232
:100C8000DA61134B00221A62114B00225A6210489B
:100C900002F02AFE0346002B01D001F08BFC7B689A
:100CA0000B4A9A630A4A7B68936300220021122050
:100CB00002F0E3FD122002F0FCFD00BF2837BD4624
:100CC00080BD00BF0020014000380240000002400B
:100CD000D40000201064024080B400AF034B1B68B6
:100CE0001846BD465DF8047B704700BF041D002018
:100CF00080B584B000AF7860FFF7EEFFF86000BF0A
:100D0000FFF7EAFF0246FB68D31A7A689A42F7D8DF
:100D100000BF00BF1037BD4680BD000080B582B067
:100D200000AF0A4801F0DAFF4FF0FF31074802F048
:100D3000DAF8064802F072FA0346FB80034802F034
:100D40009FF8FB8818460837BD4680BD8C00002000
:100D500080B584B000AF224B42221A60214B85221D
:100D60001A600023FB6007E01F4AFB68002142F87D
:100D70002310FB680133FB60FB68312BF4DD40F28C
:100D8000D253BB6007E0184ABB68002142F8231029
:100D9000BB680133BB60BB6840F203629342F2DD83
:100DA00000237B6010E0114A7B681B011344083369
:100DB00000221A600E4A7B681B011344083300228C
:100DC0001A607B6801337B607B680E2BEBDDB422FD
:100DD0000021084806F07DFB00BF1037BD4680BDEE
:100DE0004C1900205019002034010020581900200F
:100DF000981A0020901B002080B48BB000AFF860E0
:100E0000B9607A603B60FB683B2B60DCFB68002BC1
:100E10005DDBFA6813465B001344FB61BB68D9B223
:100E20002E4AFB6913440A461A70FB6901337A683B
:100E3000D1B22A4AD154FB6902333A68D1B2274A67
:100E4000D1547B68DBB23B74BB68DBB27B743B681C
:100E5000DBB2BB74FA6813465B001344DB00323329
:100E6000BB6100237B622EE000233B6225E07B6AAE
:100E7000DA00BB6913443A6A13447B6107F110023C
:100E80007B6A13441B781A463B6AC3F1070342FA94
:100E900003F303F00103002B06D0114B1A6811492C
:100EA0007B6941F8232005E00F4B1A680D497B69E7
:100EB00041F823203B6A01333B623B6A072BD6DDB6
:100EC0007B6A01337B627B6A022BCDDD00E000BFD1
:100ED0002C37BD465DF8047B704700BF901B002097
:100EE00050190020340100204C19002080B582B038
:100EF00000AF32237B6008E00B4B1A680B497B681C
:100F000041F823207B6801337B607B6840F2D1523B
:100F10009342F1DDB4220021054806F0DAFA00BF61
:100F20000837BD4680BD00BF4C19002034010020A9
:100F3000901B002080B500AF40F20463094A0021F5
:100F4000094803F0BBFF00BF074B5B6A93F83530DD
:100F5000DBB2012BF8D10021034804F077F900BF80
:100F600080BD00BF34010020141D002080B582B078
:100F700000AF244B1B78DBB2002B39D1FFF7ACFE5E
:100F80000246214B1B689A4234D3FFF7A5FE7860D6
:100F90001E4B1B687A68D31A272B2DD91B4A7B68F6
:100FA00013601B4B93F84130DBB2202B26D1194B39
:100FB000AA221A70174BAA225A70164B164A0233ED
:100FC0001146B422184606F008FB124B552283F84E
:100FD000B6200C4B01221A70B7220E490C4805F0BE
:100FE000B3F80346002B0AD0064B00221A7006E025
:100FF00000BF04E000BF02E000BF00E000BF083710
:10100000BD4680BDFF1C0020001D0020441C0020A8
:10101000BC1D0020481C0020901B002080B582B021
:1010200000AF234B01221A70FFF756FE03460A3326
:101030007B6002E0012001F0E9FD1E4B93F8413096
:10104000DBB2212B05D1FFF747FE02467B689342B6
:10105000F0D8184B93F84130DBB2212B02D1154860
:1010600005F0CDF8B4220021134806F032FAB72279
:101070000021124806F02DFA114B00221A600C4B89
:1010800000221A700D4BAA221A700C4BAA225A7019
:101090000A4B552283F8B620054B01221A70B7225D
:1010A0000649044805F050F800BF0837BD4680BD2A
:1010B000FF1C0020BC1D0020901B0020481C0020AD
:1010C000441C002080B58AB000AF624B1B78DBB2B5
:1010D000002B00F0BA8060496048FFF779F80346BA
:1010E000002B03D15E4B01221A70A6E05D495B48DC
:1010F000FFF76EF80346002B03D15B4B01221A70F9
:101100009BE05A495548FFF763F80346002B56D138
:1011100040F6FF737B6200233B62FFF7E7FEFFF7B9
:1011200009FF0023FB6114E0FFF7F8FD38603A681F
:101130007B6A9A4201DA3B687B623A683B6A9A4270
:1011400001DD3B683B620A2001F060FDFB69013371
:10115000FB61FB69C72BE7DD3A6A7B6AD31A7B60C8
:101160007B689633424A1360424B00221A60424B1E
:1011700000221A600023BB611DE000237B6108E0B0
:101180000023FF2200217869FFF736FE7B690133D7
:101190007B617B693B2BF3DDFFF7CCFEC82001F0C0
:1011A00035FDFFF7A3FEFFF7C5FEC82001F02EFDB9
:1011B000BB690133BB61BB69022BDEDD3DE0274B20
:1011C0001B78232B39D12D4805F08AFFF860FB6886
:1011D000002B32DDFB68042B2FDC294B1B68BB6026
:1011E000FB68013B264A1360254B1B68BA689A428C
:1011F00023D0FFF713FF224B1B68012B16D10023CE
:101200003B6110E01F4A3B691B0113440833002275
:101210001A601D4A3B691B011344083300221A60FF
:101220003B6901333B613B690E2BEBDDFFF75EFE53
:10123000FFF780FE322001F0E9FC064B00221A7015
:1012400020220021054806F044F900BF2837BD469A
:1012500080BD00BF761A00208C830008781A002019
:101260008C1B0020908300088D1B002094830008B5
:10127000000000204419002048190020791A00209D
:101280005419002058190020981A002080B584B005
:1012900000AF78607A6813461B019B1A9B001A46C0
:1012A000284B1B6892FBF3F3FB60FB683C2B01DDD2
:1012B0003C23FB600023BB603AE0BB68092B06DCE3
:1012C00000230022FF21B868FFF796FD2DE0BB68E0
:1012D000132B06DC00236422FF21B868FFF78CFD86
:1012E00023E0BB681D2B06DC0023FF22FF21B8682A
:1012F000FFF782FD19E0BB68272B06DC0023FF22E5
:101300000021B868FFF778FD0FE0BB68312B06DCE1
:10131000FF2364220021B868FFF76EFD05E0FF237C
:1013200000229621B868FFF767FDBB680133BB60F8
:10133000BA68FB689A42C0DB00BF00BF1037BD46E9
:1013400080BD00BF0400002080B485B000AFF8600D
:10135000B9607A603B60FB68082B73D801A252F831
:1013600023F000BF891300089D130008B113000883
:10137000C5130008D9130008F51300080914000864
:101380001D140008311400087B6800221A603B68B5
:1013900000221A60BB69BA681A605DE07B680022AF
:1013A0001A603B68BA681A60BB69BA681A6053E091
:1013B0007B6800221A603B68BA681A60BB69002229
:1013C0001A6049E07B68BA681A603B68BA681A60BC
:1013D000BB6900221A603FE07B68BA681A60BB688C
:1013E000DA0F13445B101A463B681A60BB6900228F
:1013F0001A6031E07B68BA681A603B6800221A60A4
:10140000BB6900221A6027E07B68BA681A603B68F3
:1014100000221A60BB69BA681A601DE07B68BA686E
:101420001A603B68BA681A60BB69BA681A6013E050
:101430007B68FF221A603B68FF221A60BB69FF22AB
:101440001A6009E07B68BA681A603B68BA681A607B
:10145000BB69BA681A6000BF00BF1437BD465DF8AB
:10146000047B704780B485B000AF7860204B1B6868
:10147000204A1B011344083301221A601C4B1B68CD
:101480001C4A1B01134400221A60194B1B68194A9D
:101490001B0113440433184A1A607B68DA00174BA7
:1014A0001B6892FBF3F3FB60FB68072B01DD07234E
:1014B000FB600F4B1B680F4A1B0113440C33FA6887
:1014C0001A600B4B1B685A1C0D4B83FB0213134411
:1014D000D910D317C91A0B461B015B1AD11A044B3A
:1014E000196000BF1437BD465DF8047B704700BF2C
:1014F000481A00205819002000007F4304000020F3
:101500008988888880B483B000AF00237B6043E083
:10151000264A7B681B01134408331B68002B38D014
:10152000224A7B681B0113441B689A1C1F497B6875
:101530001B010B441A601D4A7B681B0113440433D2
:10154000D3ED007A9FED1A7A67EE877A174A7B68A7
:101550001B0113440433C3ED007A144A7B681B015A
:1015600013441B683B2B0DDC104A7B681B011344A2
:101570000433D3ED007AB2EE047AF4EEC77AF1EEDA
:1015800010FA06D5094A7B681B0113440833002270
:101590001A607B6801337B607B680E2BB8DD00BF6F
:1015A00000BF0C37BD465DF8047B7047581900201A
:1015B0003333733F0000000080B58AB002AF78601B
:1015C000434B1B687A689A421CDDFFF785FB024695
:1015D000404B1B68D31A502B14D93F4B1B68143354
:1015E0007A689A420EDD3A4B1B687A68D31A18461D
:1015F000FFF738FFFFF770FB0346364A1360364AA1
:101600007B681360FFF768FB0246324B1B68D31AF6
:10161000C82B12D9304B1B681846FFF7B5F82AA320
:10162000D3E90023FEF734FE02460B461046194666
:10163000FFF714F90346284A1360FFF763FF0023FE
:10164000FB6137E0254AFB691B01134408331B6823
:10165000002B2CD0214AFB691B0113441B68BB6182
:10166000BB69002B23DBBB693B2B20DC1B4AFB69DE
:101670001B0113440C331868184AFB691B011344FF
:101680000433D3ED007AFDEEE77A07F1100107F19C
:10169000140207F10C0300930B4617EE901AFFF7A4
:1016A00053FE79693A69FB68B869FFF7A5FBFB69E6
:1016B0000133FB61FB690E2BC4DD00BF00BF203787
:1016C000BD4680BDAFF300809A9999999999E93FF9
:1016D00000000020081D00200C1D002058190020CB
:1016E00080B500AF1C4B1B681C4A1B011344083318
:1016F00001221A60184B1B68184A1B011344002270
:101700001A60154B1B68154A1B0113440433144A15
:101710001A6005F017FD03460F4A1268594203F09C
:10172000070301F0070158BF4B420C4912010A445C
:101730000C321360084B1B685A1C0A4B83FB0213C4
:101740001344D910D317C91A0B461B015B1AD11ABF
:10175000014B196000BF80BD881B0020981A002033
:1017600000007F438988888880B400AF194B1B68CC
:10177000194A1B011344083301221A60154B1B68D8
:10178000154A1B01134400221A60124B1B68124AAF
:101790001B0113440433114A1A600E4B1B680E4A96
:1017A0001B0113440C3308221A600A4B1B685A1C95
:1017B0000B4B83FB02131344D910D317C91A0B46E2
:1017C0001B015B1AD11A034B196000BFBD465DF8BF
:1017D000047B7047881B0020981A002000007F437C
:1017E0008988888880B483B000AF00237B606BE079
:1017F0003A4A7B681B01134408331B68002B60D0F6
:10180000364A7B681B0113441B685A1C33497B68AA
:101810001B010B441A60314A7B681B0113440C33D3
:101820001B68082B12D12D4A7B681B01134404331B
:10183000D3ED007A9FED2A7A67EE877A274A7B6894
:101840001B0113440433C3ED007A11E0234A7B6883
:101850001B0113440433D3ED007A9FED227A67EE27
:10186000877A1E4A7B681B0113440433C3ED007A58
:101870001A4A7B681B0113440C331B68082B01D1E7
:10188000502300E03C233B60144A7B681B01134457
:101890001B683A689A420DDD104A7B681B011344AD
:1018A0000433D3ED007AB2EE047AF4EEC77AF1EEA7
:1018B00010FA06D5094A7B681B011344083300223D
:1018C0001A607B6801337B607B680E2B90DD00BF64
:1018D00000BF0C37BD465DF8047B7047981A0020A6
:1018E00048E17A3F8FC2753F80B58AB000AF87ED7F
:1018F000050A3861F960BA607B60D7ED057A9FED23
:10190000117A67EE877AC7ED097A4FF07E533B6212
:101910003B6907EE903AB8EEE77ADFED0B6AC7EE67
:10192000267AC7ED077A7A68B968F86897ED071ADA
:10193000D7ED080A97ED090A00F02CF900BF283707
:10194000BD4680BD0000B44300007F4390B58DB01C
:1019500002AF00237B62A2E0554A7B6A1B0113445D
:1019600008331B68002B00F09780514A7B6A1B01EB
:1019700013441B68FB614E4A7B6A1B01134404330A
:10198000D3ED007AFDEEE77A17EE903ABB61484A54
:101990007B6A1B0113440C331B68082B33D11423BF
:1019A0007B6100233B6229E0FA693B6AD31A3B6101
:1019B0003B69002B1FDB3B693B2B1CDC3B6A07EEC2
:1019C000903AF8EEE76A7B6907EE903AB8EEE77A6C
:1019D000C6EE877AC7ED037A3B463A1D07F1080148
:1019E000B86997ED030AFFF77FFFB9687A683B682B
:1019F0003869FFF701FA3B6A01333B623A6A7B6957
:101A00009A42D1DB48E0FB69002B45DBFB693B2BAD
:101A100042DC274A7B6A1B0113440C331868391DCA
:101A200007F108023B4600930B46B969FFF78CFCAF
:101A3000B9687A683B68F869FFF7DEF9FB69002B43
:101A400012DDFB69581EBB68DA0F13445B101946A0
:101A50007B68DA0F13445B101C463B68DA0F1344B3
:101A60005B102246FFF7C8F9FB69012B14DDFB6907
:101A7000981EBB68002B00DA03339B1019467B6865
:101A8000002B00DA03339B101A463B68002B00DA68
:101A900003339B10FFF7B0F97B6A01337B627B6AEB
:101AA0000E2B7FF759AF00BF00BF2C37BD4690BD4E
:101AB000981A00200000000080B586B000AF786062
:101AC000314B1B687A689A4206DD2F4B1B687A6897
:101AD000D31A2E4A136012E02C4B1B681846FEF7EF
:101AE00053FE27A3D3E90023FEF7D2FB02460B46A1
:101AF00010461946FEF7B2FE0346244A13601E2321
:101B00003B61224B1B683A6903FB02F2204B1B68C6
:101B100092FBF3F3FB6000237B6126E0FA687B69AC
:101B2000D21A13461B029A1AFB6892FBF3F3BB60AE
:101B30003A697B69D31A002B07DB3A697B69D01AB3
:101B4000BB680022B968FFF757F93A697B6913440B
:101B50003B2B07DC3A697B69D018BB680022B96867
:101B6000FFF74AF97B6901337B617A69FB689A4226
:101B7000D4DB00BF00BF1837BD4680BDAFF3008087
:101B8000CDCCCCCCCCCCEC3F000000204C1A0020BB
:101B90000400002080B58CB000AF87ED050AC7EDCA
:101BA000040A87ED031AB86079603A6097ED037A0A
:101BB000D7ED047A67EE277AC7ED087AD7ED057A74
:101BC000DFED6F6A87EEA67AF0EE000AB0EE470A04
:101BD00006F02EFBF0EE407AB7EE007A77EEC77A89
:101BE000F0EEE77AB7EE007A77EE677A97ED087A4B
:101BF00067EE277AC7ED077A97ED037AD7ED087A73
:101C000077EE677AC7ED067AD7ED057AF5EEC07AFA
:101C1000F1EE10FA10DBD7ED057A9FED597AF4EE6C
:101C2000C77AF1EE10FA07D53B6AFB62FB69BB622B
:101C30004FF000037B626EE0D7ED057A9FED507A9E
:101C4000F4EEC77AF1EE10FA10DBD7ED057A9FEDCE
:101C50004D7AF4EEC77AF1EE10FA07D5FB69FB6214
:101C60003B6ABB624FF000037B6254E0D7ED057A1C
:101C70009FED447AF4EEC77AF1EE10FA10DBD7ED5F
:101C8000057A9FED417AF4EEC77AF1EE10FA07D5A6
:101C90004FF00003FB623B6ABB62FB697B623AE088
:101CA000D7ED057A9FED387AF4EEC77AF1EE10FAA7
:101CB00010DBD7ED057A9FED357AF4EEC77AF1EEB9
:101CC00010FA07D54FF00003FB62FB69BB623B6A69
:101CD0007B6220E0D7ED057A9FED2C7AF4EEC77A8F
:101CE000F1EE10FA10DBD7ED057A9FED297AF4EECC
:101CF000C77AF1EE10FA07D5FB69FB624FF00003DB
:101D0000BB623B6A7B6206E03B6AFB624FF000030A
:101D1000BB62FB697B6297ED0B7AD7ED067A77EEB3
:101D2000277A9FED1C7A67EE877AFDEEE77A17EE49
:101D3000902ABB681A6097ED0A7AD7ED067A77EE9B
:101D4000277A9FED147A67EE877AFDEEE77A17EE31
:101D5000902A7B681A6097ED097AD7ED067A77EEBC
:101D6000277A9FED0C7A67EE877AFDEEE77A17EE19
:101D7000902A3B681A6000BF3037BD4680BD00BF67
:101D8000000070420000F042000034430000704345
:101D90000000964300007F4380B58AB000AF7860B2
:101DA000494B1B687A689A4206DD474B1B687A6884
:101DB000D31A464A136012E0444B1B681846FEF7DC
:101DC000E3FC3FA3D3E90023FEF762FA02460B4689
:101DD00010461946FEF742FD03463C4A13603B4B52
:101DE0001B6807EE903AF8EEE77A9FED397A67EED6
:101DF000876A384B1B6807EE903AB8EEE77AC6EE72
:101E0000877A9FED337A77EE677AC7ED097AD7ED57
:101E1000097AF5EEC07AF1EE10FA02D54FF0000320
:101E20007B624FF07E53BB61284B1B6807EE903AF4
:101E3000F8EEE76A274B1B6807EE903AB8EEE77AB0
:101E4000C6EE877AC7ED087AD7ED087AB7EE007A42
:101E5000F4EEC77AF1EE10FA02DD4FF07E533B62EA
:101E6000D7ED087A9FED1C7AF4EEC77AF1EE10FAFE
:101E700001D51A4B3B6207F10C0207F1100107F183
:101E80001403184697ED081AD7ED060A97ED090ACC
:101E9000FFF780FE0023FB6108E079693A69FB687F
:101EA000F869FEF7A9FFFB690133FB61FB693B2B76
:101EB000F3DD00BF00BF2837BD4680BDAFF3008013
:101EC000666666666666EE3F00000020501A0020D7
:101ED0000000704304000020CDCCCC3DCDCCCC3DE7
:101EE00080B58CB000AF00F033FE00F0F7F800F0E2
:101EF0008FFA00F04FFA00F05BF900F0ABF900F058
:101F00004FFD01226C496D4804F054F9FEF720FFA3
:101F1000FEF7ECFFFFF70EF840F6FF73FB620023BD
:101F2000BB6200237B6214E0FEF7F8FE38603A687B
:101F3000FB6A9A4201DA3B68FB623A68BB6A9A42E2
:101F400001DD3B68BB620A20FEF7D2FE7B6A0133EB
:101F50007B627B6AC72BE7DDBA6AFB6AD31AFB6038
:101F6000FB689633564A1360554B1B68184605F0BC
:101F7000BBF8544B00221A60FFF7A4F8524B1B78B1
:101F8000DBB2002B04D0FFF7ABFB4F4B00221A70E3
:101F90004E4B1B78DBB2002B04D0FFF7E5FB4B4B1D
:101FA00000221A70FFF71EFC00233B6240F6FF730D
:101FB000FB610023BB6114E0FEF7B0FE78607A6835
:101FC0003B6A9A4201DD7B683B627A68FB699A4210
:101FD00001DA7B68FB61012000F018FEBB69013368
:101FE000BB61BB69092BE7DD3A6AFB69D31A7B61E8
:101FF0007B694F2B01DC00237B61354B1A6813464C
:10200000DB00991A7A6913465B0013440B44314A8A
:1020100082FB03129210DB17D31A2D4A1360284B50
:102020001B68BB6000233B61294B1B68BA689A425E
:1020300009DA274B1A68BB68D31A3B61FEF74CFEDE
:102040000346254A1360FEF751FF1E4B1B68032B06
:102050002AD801A252F823F0692000088120000844
:10206000912000089D200008194B1B68BA689A420D
:1020700001DA3B6900E000231846FFF707F913E097
:10208000134B1B681846FFF797FAFFF75FFC0BE04E
:102090000F4B1B681846FFF70FFD05E00C4B1B6844
:1020A0001846FFF779FE00BFFEF744FFFEF75EFF1C
:1020B0001420FEF71DFE5FE7751A0020BC1D0020EE
:1020C00000000020541900208C1B00208D1B0020D4
:1020D00044190020676666664819002080B594B0F0
:1020E00000AF07F1200330220021184605F0F1F976
:1020F00007F10C0300221A605A609A60DA601A61D4
:102100000023BB60284B1B6C274A43F080531364A9
:10211000254B1B6C03F08053BB60BB6800237B60C6
:10212000224B1B68214A43F4804313601F4B1B68FA
:1021300003F480437B607B6801233B624FF4803370
:102140007B620223BB634FF48003FB6304233B6485
:10215000A8237B640223BB640423FB6407F12003F0
:10216000184602F06BF90346002B01D000F022FA6A
:102170000F23FB6002233B6100237B614FF4A053DC
:10218000BB614FF48053FB6107F10C030521184636
:1021900002F0CCFB0346002B01D000F00BFA00BF8D
:1021A0005037BD4680BD00BF00380240007000407F
:1021B00080B584B000AF3B4600221A605A609A6036
:1021C000DA60214B214A1A601F4B4FF480325A606B
:1021D0001D4B00229A601C4B00221A611A4B0022F0
:1021E0001A76194B002283F82020174B0022DA625E
:1021F000154B174A9A62144B0022DA60124B0122E7
:10220000DA61114B002283F830200F4B01225A6112
:102210000D4800F01FFD0346002B01D000F0CAF965
:1022200001233B6001237B600123BB603B461946D1
:10223000054801F01FF80346002B01D000F0BAF961
:1022400000BF1037BD4680BD8C000020002001403B
:102250000100000F80B596B000AF07F148030022DF
:102260001A605A609A60DA6007F1400300221A602F
:102270005A6007F1240300221A605A609A60DA60FB
:102280001A615A619A613B1D20220021184605F00F
:1022900020F93E4B3E4A1A603C4B00225A603B4BB1
:1022A00000229A60394BD122DA60384B00221A6141
:1022B000364B00225A61354B00229A61334802F0B6
:1022C00055FD0346002B01D000F074F94FF4805304
:1022D000BB6407F1480319462C4803F04BF9034649
:1022E000002B01D000F066F9284802F08EFD03466D
:1022F000002B01D000F05EF900233B6400237B64D7
:1023000007F140031946214803F000FE0346002B65
:1023100001D000F04FF960237B620023BB620023F1
:10232000FB6200233B6300237B630023BB6300232A
:10233000FB6307F1240300221946144803F058F800
:102340000346002B01D000F035F900237B60002309
:10235000BB600023FB6000233B6100237B614FF4E3
:102360000053BB6100233B623B1D1946074803F045
:1023700049FE0346002B01D000F01CF9034800F091
:10238000D5FA00BF5837BD4680BD00BF141D0020E0
:102390000000014080B582B000AF00237B601B4B82
:1023A0001B6B1A4A43F400131363184B1B6B03F4A3
:1023B00000137B607B6800233B60144B1B6B134A4C
:1023C00043F480031363114B1B6B03F480033B60E6
:1023D0003B6800220021102001F04FFA102001F08C
:1023E00068FA00220021382001F047FA382001F075
:1023F00060FA00220021392001F03FFA392001F073
:1024000058FA00BF0837BD4680BD00BF0038024003
:1024100080B485B000AF0023FB601E4B1B6B1D4AD0
:1024200043F0800313631B4B1B6B03F08003FB60C3
:10243000FB680023BB60174B1B6B164A43F001037C
:102440001363144B1B6B03F00103BB60BB680023D9
:102450007B60104B1B6B0F4A43F0020313630D4B61
:102460001B6B03F002037B607B6800233B60094B1E
:102470001B6B084A43F010031363064B1B6B03F0FE
:1024800010033B603B6800BF1437BD465DF8047B1A
:10249000704700BF0038024080B582B000AF78605E
:1024A0007B681B68264A934246D1264B1B78DBB2D9
:1024B0003B2B22D1244B1B781E2B15D8224B1B788B
:1024C0001A46224B002199542049214805F07DF8F5
:1024D000204B01221A701C4B00221A70202200216E
:1024E0001A4804F0F6FF22E0174B00221A7020224F
:1024F0000021164804F0EDFF19E0124B1B78DBB207
:102500000D2B14D00F4B1B78DBB20A2B0FD00E4BC8
:102510001B781E2B0BD80C4B1B785A1CD1B20A4AC5
:1025200011701A46074B1B78D9B2084B99540122F7
:102530000449094803F03EFE00BF0837BD4680BD90
:1025400000100140751A0020741A0020541A00204F
:10255000781A0020761A0020BC1D002080B483B0B9
:1025600000AF78607B681B68054A934202D1054B37
:1025700000221A7000BF0C37BD465DF8047B70471F
:1025800000100140FF1C002080B400AF074B1B6807
:102590000133064A1360064B1B680133044A13607B
:1025A00000BFBD465DF8047B704700BF641E00207D
:1025B000041D002080B400AF72B600BF00BFFDE76D
:1025C00080B483B000AF00237B60104B5B6C0F4A7C
:1025D00043F4804353640D4B5B6C03F480437B6096
:1025E0007B6800233B60094B1B6C084A43F0805317
:1025F0001364064B1B6C03F080533B603B6800BFC9
:102600000C37BD465DF8047B704700BF00380240C0
:1026100080B400AF00BFFDE780B400AF00BFFDE7AE
:1026200080B400AF00BFFDE780B400AF00BFFDE79E
:1026300080B400AF00BFFDE780B400AF00BFBD466F
:102640005DF8047B704780B400AF00BFBD465DF805
:10265000047B704780B400AF00BFBD465DF8047BCB
:10266000704780B500AFFFF78FFF00BF80BD00004F
:1026700080B500AF024800F0C1FC00BF80BD00BFC4
:102680008C00002080B500AF024803F021FE00BF9F
:1026900080BD00BFBC1D002080B500AF024801F026
:1026A000BBFA00BF80BD00BFD400002080B500AFE2
:1026B000024801F0B1FA00BF80BD00BF5C1D0020E0
:1026C00080B500AF024801F0A7FA00BF80BD00BF8F
:1026D000041E002080B400AF01231846BD465DF8FB
:1026E000047B704780B582B000AF7860396004F039
:1026F0003FFF034616221A604FF0FF331846083793
:10270000BD4680BD80B582B000AF78604FF0FF312C
:102710007868FFF7E7FF00BFFDE780B586B000AF40
:10272000F860B9607A6000237B610AE0AFF3008053
:102730000146BB685A1CBA60CAB21A707B69013381
:102740007B617A697B689A42F0DB7B6818461837B0
:10275000BD4680BD80B586B000AFF860B9607A60D4
:1027600000237B6109E0BB685A1CBA601B781846DD
:10277000AFF300807B6901337B617A697B689A42A1
:10278000F1DB7B6818461837BD4680BD80B483B046
:1027900000AF78604FF0FF3318460C37BD465DF848
:1027A000047B704780B483B000AF786039603B68C9
:1027B0004FF400525A60002318460C37BD465DF8AE
:1027C000047B704780B483B000AF78600123184663
:1027D0000C37BD465DF8047B704780B485B000AF10
:1027E000F860B9607A60002318461437BD465DF87A
:1027F000047B704780B586B000AF7860144A154BF3
:10280000D31A7B617B693B61134B1B68002B02D1A0
:10281000114B124A1A60104B1A687B6813443A69CC
:102820009A4207D204F0A4FE03460C221A604FF02D
:10283000FF3309E0084B1B68FB60074B1A687B6895
:102840001344054A1360FB6818461837BD4680BD1F
:102850000000022000040000101D0020B81F00200E
:1028600080B400AF064BD3F88830054A43F47003B8
:10287000C2F8883000BFBD465DF8047B704700BFDA
:1028800000ED00E080B584B000AF78607B681B6825
:10289000224A93423DD10023FB60214B5B6C204ACE
:1028A00043F0010353641E4B5B6C03F00103FB60B8
:1028B000FB681C4B1C4A1A601A4B4FF040625A606E
:1028C000184B40229A60174B0022DA60154B4FF4E8
:1028D00080621A61134B4FF480525A61114B4FF4CE
:1028E00080429A610F4B0022DA610E4B00221A627D
:1028F0000C4B00225A620B4800F0F6FF0346002BF7
:1029000001D0FFF757FE7B68064A5A62054A7B688A
:10291000936300BF1037BD4680BD00BF000001407B
:10292000003802405C1D00202864024080B588B059
:1029300000AF786007F10C0300221A605A609A60B9
:10294000DA601A617B681B68124A93421ED1002329
:10295000BB60114B1B6B104A43F0100313630E4B0B
:102960001B6B03F01003BB60BB684FF40073FB608C
:1029700002233B6100237B610023BB610123FB61D8
:1029800007F10C031946054801F0BCFB00BF2037D6
:10299000BD4680BD000001400038024000100240EA
:1029A00080B500AF114B124A1A60104B4FF4E12270
:1029B0005A600E4B00229A600C4B0022DA600B4BDF
:1029C00000221A61094B0C225A61084B00229A61BD
:1029D000064B0022DA61054803F066FB0346002B34
:1029E00001D0FFF7E7FD00BF80BD00BFBC1D002088
:1029F0000010014080B58AB000AF786007F1140381
:102A000000221A605A609A60DA601A617B681B685B
:102A1000354A934263D100233B61344B5B6C334AAC
:102A200043F010035364314B5B6C03F010033B61C4
:102A30003B690023FB602D4B1B6B2C4A43F00103C9
:102A400013632A4B1B6B03F00103FB60FB684FF41D
:102A5000C0637B610223BB610023FB6103233B62F4
:102A600007237B6207F114031946214801F04AFB52
:102A7000204B214A1A601F4B4FF000625A601D4BD9
:102A800040229A601B4B0022DA601A4B4FF480629E
:102A90001A61184B00225A61164B00229A61154B9D
:102AA0000022DA61134B4FF400321A62114B0022FC
:102AB0005A62104800F018FF0346002B01D0FFF7C0
:102AC00079FD7B680B4A9A630A4A7B68936300220C
:102AD0000021252000F0D1FE252000F0EAFE00BFF5
:102AE0002837BD4680BD00BF0010014000380240BD
:102AF00000000240041E0020B8640240DFF834D019
:102B0000FFF7AEFE0C480D490D4A002302E0D458F1
:102B1000C4500433C4188C42F9D30A4A0A4C002327
:102B200001E013600432A242FBD304F027FDFFF75B
:102B3000D7F970470000022000000020700000203C
:102B4000B085000870000020B41F0020FEE70000E0
:102B500080B500AF0E4B1B680D4A43F40073136041
:102B60000B4B1B680A4A43F480631360084B1B68D5
:102B7000074A43F480731360032000F073FE0F20B4
:102B800000F008F8FFF71CFD0023184680BD00BFC9
:102B9000003C024080B582B000AF7860124B1A68EA
:102BA000124B1B7819464FF47A73B3FBF1F3B2FB67
:102BB000F3F3184600F08BFE0346002B01D00123EF
:102BC0000EE07B680F2B0AD8002279684FF0FF30A7
:102BD00000F053FE064A7B681360002300E00123E7
:102BE00018460837BD4680BD0800002010000020B0
:102BF0000C00002080B400AF034B1B681846BD4694
:102C00005DF8047B704700BF641E002080B584B06F
:102C100000AF7860FFF7EEFFB8607B68FB60FB6891
:102C2000B3F1FF3F05D00A4B1B781A46FB681344EB
:102C3000FB6000BFFFF7DEFF0246BB68D31AFA68ED
:102C40009A42F7D800BF00BF1037BD4680BD00BF15
:102C50001000002080B584B000AF78600023FB73C3
:102C60007B68002B01D1012333E07B681B6C002BB8
:102C700009D17868FDF7B0FF7B6800225A647B6851
:102C8000002283F83C207B681B6C03F01003002BB0
:102C900018D17B681B6C23F4885323F0020343F0A4
:102CA00002027B681A64786800F006FC7B680022E8
:102CB0005A647B681B6C23F0030343F001027B68BA
:102CC0001A6401E00123FB737B68002283F83C2037
:102CD000FB7B18461037BD4680BD000080B485B030
:102CE00000AF78600023BB607B6893F83C30012B19
:102CF00001D10223B2E07B68012283F83C207B688B
:102D00001B689B6803F00103012B18D07B681B68CC
:102D10009A687B681B6842F001029A60524B1B68FC
:102D2000524AA2FB03239A0C13465B001344BB6078
:102D300002E0BB68013BBB60BB68002BF9D17B683C
:102D40001B689B6803F00103012B7AD17B681B6C25
:102D500023F4E06323F0010343F480727B681A6478
:102D60007B681B685B6803F48063002B07D07B687B
:102D70001B6C23F4405343F480527B681A647B68D5
:102D80001B6C03F48053B3F5805F06D17B685B6CEA
:102D900023F006027B685A6402E07B6800225A64D2
:102DA0007B68002283F83C20314BFB607B681B680A
:102DB0006FF022021A60FB685B6803F01F03002BB0
:102DC0002AD17B681B682B4A934215D07B681B680D
:102DD000294A934205D1264B5B6803F01F03002B61
:102DE0000AD07B681B68254A934236D1204B5B682A
:102DF00003F01003002B30D17B681B689B6803F045
:102E00004053002B29D17B681B689A687B681B683C
:102E100042F080429A6020E07B681B68154A93422A
:102E20001BD17B681B689B6803F04053002B14D1B7
:102E30007B681B689A687B681B6842F080429A60D6
:102E40000BE07B681B6C43F010027B681A647B68A4
:102E50005B6C43F001027B685A6400231846143708
:102E6000BD465DF8047B70470800002083DE1B43ED
:102E700000230140002001400021014000220140C8
:102E800080B483B000AF78607B6893F83C30012B4E
:102E900001D1022321E07B68012283F83C207B687A
:102EA0001B689A687B681B6822F001029A607B6845
:102EB0001B689B6803F00103002B09D17B681B6C26
:102EC00023F4885323F0010343F001027B681A6462
:102ED0007B68002283F83C20002318460C37BD464F
:102EE0005DF8047B704780B584B000AF78603960CE
:102EF0000023FB607B681B689B6803F48063B3F569
:102F0000806F13D17B681B689B6803F48073B3F5F3
:102F1000807F0BD17B681B6C43F020027B681A64B6
:102F20007B68002283F83C20012363E0FFF762FE08
:102F3000F86021E03B68B3F1FF3F1DD03B68002BF8
:102F400007D0FFF757FE0246FB68D31A3A689A4249
:102F500012D27B681B681B6803F00203022B0BD0A4
:102F60007B681B6C43F004027B681A647B68002258
:102F700083F83C2003233DE07B681B681B6803F05B
:102F80000203022BD6D17B681B686FF012021A6015
:102F90007B681B6C43F400727B681A647B681B6857
:102FA0009B6803F04053002B23D17B681B7E002BD2
:102FB0001FD17B681B68DB6A03F47003002B06D00B
:102FC0007B681B689B6803F48063002B11D17B68CE
:102FD0001B6C23F480727B681A647B681B6C03F49F
:102FE0008053002B05D17B681B6C43F001027B688A
:102FF0001A64002318461037BD4680BD80B586B0E0
:1030000000AF786000237B6100233B617B681B6815
:103010001B68FB607B681B685B68BB60FB6803F038
:1030200002037B61BB6803F020033B617B69002BDB
:1030300049D03B69002B46D07B681B6C03F0100322
:10304000002B05D17B681B6C43F400727B681A640B
:103050007B681B689B6803F04053002B2BD17B6877
:103060001B7E002B27D17B681B68DB6A03F470038F
:10307000002B06D07B681B689B6803F48063002BE1
:1030800019D17B681B685A687B681B6822F0200294
:103090005A607B681B6C23F480727B681A647B68BF
:1030A0001B6C03F48053002B05D17B681B6C43F031
:1030B00001027B681A64786800F0BDF87B681B68C1
:1030C0006FF012021A60FB6803F004037B61BB68B7
:1030D00003F080033B617B69002B57D03B69002BD9
:1030E00054D07B681B6C03F01003002B05D17B6868
:1030F0001B6C43F400527B681A647B681B689B68F6
:1031000003F44013002B39D17B681B689B6B03F4DD
:103110004013002B06D07B681B689B6803F4806318
:10312000002B2BD17B681B685B6803F48063002B4A
:1031300024D17B681B689B6803F04053002B1DD192
:103140007B681B7E002B19D17B681B685A687B68E3
:103150001B6822F080025A607B681B6C23F480524B
:103160007B681A647B681B6C03F48073002B05D1A9
:103170007B681B6C43F001027B681A64786800F07E
:1031800097FA7B681B686FF00C021A60FB6803F00B
:1031900001037B61BB6803F040033B617B69002B4B
:1031A00017D03B69002B14D07B681B681B6803F0A9
:1031B0000103012B0DD17B681B6C43F480327B68CB
:1031C0001A64786800F041F87B681B686FF00102B0
:1031D0001A60FB6803F020037B61BB6803F0806327
:1031E0003B617B69002B15D03B69002B12D07B68BB
:1031F0005B6C43F002027B685A647B681B686FF06B
:1032000020021A60786800F02AF87B681B686FF06B
:1032100020021A6000BF1837BD4680BD80B483B05D
:1032200000AF78607B681B68DB6C18460C37BD46C6
:103230005DF8047B704780B483B000AF786000BF56
:103240000C37BD465DF8047B704780B483B000AF97
:10325000786000BF0C37BD465DF8047B704780B4D2
:1032600083B000AF786000BF0C37BD465DF8047BCB
:103270007047000080B485B000AF786039600023EB
:10328000BB607B6893F83C30012B01D1022305E140
:103290007B68012283F83C203B681B68092B25D9F9
:1032A0007B681B68D9683B681B689BB21A4613464B
:1032B0005B0013441E3B072202FA03F3DA437B68E8
:1032C0001B680A40DA607B681B68D9683B689A68AB
:1032D0003B681B689BB2184603465B0003441E3BD9
:1032E0009A407B681B680A43DA6022E07B681B68AF
:1032F00019693B681B689BB21A4613465B0013446E
:10330000072202FA03F3DA437B681B680A401A615A
:103310007B681B6819693B689A683B681B689BB2AD
:10332000184603465B0003449A407B681B680A43C7
:103330001A613B685B68062B24D87B681B68596B55
:103340003B685A6813469B001344053B1F2202FA50
:1033500003F3DA437B681B680A405A637B681B6887
:10336000596B3B681B689BB218463B685A6813460A
:103370009B001344053B00FA03F27B681B680A4379
:103380005A634CE03B685B680C2B24D87B681B6855
:10339000196B3B685A6813469B001344233B1F225A
:1033A00002FA03F3DA437B681B680A401A637B68FE
:1033B0001B68196B3B681B689BB218463B685A68D0
:1033C00013469B001344233B00FA03F27B681B68FF
:1033D0000A431A6323E07B681B68D96A3B685A6812
:1033E00013469B001344413B1F2202FA03F3DA43C6
:1033F0007B681B680A40DA627B681B68D96A3B6895
:103400001B689BB218463B685A6813469B001344DE
:10341000413B00FA03F27B681B680A43DA62224BE5
:10342000FB607B681B68214A934209D13B681B689B
:10343000122B05D1FB685B6843F48002FB685A607D
:103440007B681B68194A934223D13B681B68102B89
:1034500003D03B681B68112B1BD1FB685B6843F4EE
:103460000002FB685A603B681B68102B11D1104B9F
:103470001B68104AA2FB03239A0C13469B001344BB
:103480005B00BB6002E0BB68013BBB60BB68002B1C
:10349000F9D17B68002283F83C20002318461437BA
:1034A000BD465DF8047B70470023014000200140C9
:1034B0000800002083DE1B4380B485B000AF786035
:1034C000794BFB60FB685B6823F44032FB685A6011
:1034D000FB685A687B685B681A43FB685A607B68C4
:1034E0001B685A687B681B6822F480725A607B688C
:1034F0001B6859687B681B691A027B681B680A4352
:103500005A607B681B685A687B681B6822F04072AF
:103510005A607B681B6859687B689A687B681B687F
:103520000A435A607B681B689A687B681B6822F4B0
:1035300000629A607B681B6899687B68DA687B68C0
:103540001B680A439A607B689B6A584A934222D060
:103550007B681B689A687B681B6822F070629A60BF
:103560007B681B6899687B689A6A7B681B680A435A
:103570009A607B681B689A687B681B6822F04052DF
:103580009A607B681B6899687B68DA6A7B681B684D
:103590000A439A600FE07B681B689A687B681B6827
:1035A00022F070629A607B681B689A687B681B686F
:1035B00022F040529A607B681B689A687B681B689F
:1035C00022F002029A607B681B6899687B681B7E08
:1035D0005A007B681B680A439A607B6893F8203026
:1035E000002B1BD07B681B685A687B681B6842F401
:1035F00000625A607B681B685A687B681B6822F40B
:1036000060425A607B681B6859687B685B6A013B53
:103610005A037B681B680A435A6007E07B681B6893
:103620005A687B681B6822F400625A607B681B68DA
:10363000DA6A7B681B6822F47002DA627B681B68B6
:10364000D96A7B68DB69013B1A057B681B680A4302
:10365000DA627B681B689A687B681B6822F40072D8
:103660009A607B681B6899687B6893F830305A02CF
:103670007B681B680A439A607B681B689A687B6852
:103680001B6822F480629A607B681B6899687B687B
:103690005B699A027B681B680A439A6000BF143713
:1036A000BD465DF8047B7047002301400100000F18
:1036B00080B483B000AF786000BF0C37BD465DF8C2
:1036C000047B704780B485B000AF78607B6803F0FE
:1036D0000703FB600C4BDB68BB60BA684FF6FF0367
:1036E0001340BB60FB681A02BB68134343F0BF631F
:1036F00043F40033BB60044ABB68D36000BF143797
:10370000BD465DF8047B704700ED00E080B400AF7B
:10371000044BDB681B0A03F007031846BD465DF83F
:10372000047B704700ED00E080B483B000AF034637
:10373000FB7197F90730002B0BDBFB7903F01F02BD
:10374000074997F907305B09012000FA02F241F8B6
:10375000232000BF0C37BD465DF8047B704700BFD7
:1037600000E100E080B483B000AF03463960FB7134
:1037700097F90730002B0ADB3B68DAB20C4997F95E
:1037800007301201D2B20B4483F800230AE03B68F1
:10379000DAB20849FB7903F00F03043B1201D2B2FD
:1037A0000B441A7600BF0C37BD465DF8047B7047AA
:1037B00000E100E000ED00E080B489B000AFF86007
:1037C000B9607A60FB6803F00703FB61FB69C3F132
:1037D0000703042B28BF0423BB61FB690433062BBA
:1037E00002D9FB69033B00E000237B614FF0FF320D
:1037F000BB6902FA03F3DA43BB681A407B699A405B
:103800004FF0FF317B6901FA03F3D9437B680B402A
:10381000134318462437BD465DF8047B704700000B
:1038200080B582B000AF78607B68013BB3F1807FE8
:1038300001D301230FE00A4A7B68013B53600F214B
:103840004FF0FF30FFF78EFF054B00229A60044BCC
:1038500007221A60002318460837BD4680BD00BF06
:1038600010E000E080B582B000AF78607868FFF7C4
:1038700029FF00BF0837BD4680BD80B586B000AFC8
:103880000346B9607A60FB7300237B61FFF73EFF5C
:1038900078617A68B9687869FFF78EFF024697F910
:1038A0000F3011461846FFF75DFF00BF1837BD46C1
:1038B00080BD80B582B000AF0346FB7197F9073039
:1038C0001846FFF731FF00BF0837BD4680BD80B501
:1038D00082B000AF78607868FFF7A2FF0346184611
:1038E0000837BD4680BD000080B586B000AF786067
:1038F00000237B61FFF77EF938617B68002B01D1E3
:10390000012399E07B68022283F835207B6800223E
:1039100083F834207B681B681A687B681B6822F078
:1039200001021A600FE0FFF765F902463B69D31AFE
:10393000052B08D97B6820225A657B68032283F80F
:103940003520032378E07B681B681B6803F00103C4
:10395000002BE8D17B681B681B687B617A69384B58
:1039600013407B617B685A687B689B681A437B685D
:10397000DB681A437B681B691A437B685B691A43DF
:103980007B689B691A437B68DB691A437B681B6A07
:1039900013437A6913437B617B685B6A042B07D10D
:1039A0007B68DA6A7B681B6B13437A6913437B611C
:1039B0007B681B687A691A607B681B685B697B613E
:1039C0007B6923F007037B617B685B6A7A69134339
:1039D0007B617B685B6A042B17D17B689B6A7A6981
:1039E00013437B617B68DB6A002B0ED0786800F0A4
:1039F0000DFB0346002B08D07B6840225A657B688C
:103A0000012283F83520012316E07B681B687A6960
:103A10005A61786800F0C4FA0346FB607B68DB6D8E
:103A20003F229A40FB689A607B6800225A657B6857
:103A3000012283F83520002318461837BD4680BD83
:103A40003F8010F080B586B000AFF860B9607A6052
:103A50003B600023FB75FB689B6D3B61FB6893F843
:103A60003430012B01D1022340E0FB68012283F8AE
:103A70003420FB6893F83530DBB2012B2FD1FB6883
:103A8000022283F83520FB6800225A653B687A6879
:103A9000B968F86800F056FAFB68DB6D3F229A407F
:103AA0003B699A60FB681B681A68FB681B6842F0F8
:103AB00016021A60FB681B6C002B07D0FB681B68A2
:103AC0001A68FB681B6842F008021A60FB681B68F2
:103AD0001A68FB681B6842F001021A6005E0FB6887
:103AE000002283F834200223FB75FB7D184618372B
:103AF000BD4680BD80B584B000AF78607B689B6DAB
:103B0000FB60FFF777F8B8607B6893F83530DBB27D
:103B1000022B08D07B6880225A657B68002283F8DC
:103B20003420012352E07B681B681A687B681B689D
:103B300022F016021A607B681B685A697B681B6852
:103B400022F080025A617B681B6C002B03D17B68DA
:103B50009B6C002B07D07B681B681A687B681B680E
:103B600022F008021A607B681B681A687B681B6871
:103B700022F001021A6013E0FFF73CF80246BB682E
:103B8000D31A052B0CD97B6820225A657B68032247
:103B900083F835207B68002283F83420032315E066
:103BA0007B681B681B6803F00103002BE4D17B6872
:103BB000DB6D3F229A40FB689A607B68012283F8A4
:103BC00035207B68002283F8342000231846103704
:103BD000BD4680BD80B483B000AF78607B6893F849
:103BE0003530DBB2022B04D07B6880225A6501237A
:103BF0000CE07B68052283F835207B681B681A6817
:103C00007B681B6822F001021A60002318460C37FB
:103C1000BD465DF8047B704780B586B000AF786024
:103C20000023BB608E4B1B688E4AA2FB03239B0ABA
:103C30007B617B689B6D3B613B691B68FB607B68BC
:103C4000DB6D08229A40FB681340002B1AD07B687A
:103C50001B681B6803F00403002B13D07B681B68F0
:103C60001A687B681B6822F004021A607B68DB6DAF
:103C700008229A403B699A607B685B6D43F00102C1
:103C80007B685A657B68DB6D01229A40FB681340B4
:103C9000002B12D07B681B685B6903F08003002B4C
:103CA0000BD07B68DB6D01229A403B699A607B6890
:103CB0005B6D43F002027B685A657B68DB6D042212
:103CC0009A40FB681340002B12D07B681B681B686E
:103CD00003F00203002B0BD07B68DB6D04229A40BB
:103CE0003B699A607B685B6D43F004027B685A65B0
:103CF0007B68DB6D10229A40FB681340002B43D099
:103D00007B681B681B6803F00803002B3CD07B68B2
:103D1000DB6D10229A403B699A607B681B681B68C8
:103D200003F48023002B18D07B681B681B6803F406
:103D30000023002B08D17B681B6C002B24D07B68F0
:103D40001B6C786898471FE07B689B6C002B1BD02E
:103D50007B689B6C7868984716E07B681B681B68DB
:103D600003F48073002B07D17B681B681A687B689B
:103D70001B6822F008021A607B681B6C002B03D0C2
:103D80007B681B6C786898477B68DB6D20229A40C3
:103D9000FB681340002B00F08F807B681B681B685A
:103DA00003F01003002B00F087807B68DB6D20227E
:103DB0009A403B699A607B6893F83530DBB2052BFB
:103DC00036D17B681B681A687B681B6822F0160274
:103DD0001A607B681B685A697B681B6822F0800246
:103DE0005A617B681B6C002B03D17B689B6C002B9A
:103DF00007D07B681B681A687B681B6822F0080282
:103E00001A607B68DB6D3F229A403B699A607B6851
:103E1000012283F835207B68002283F834207B68F8
:103E20001B6D002B7ED07B681B6D7868984779E00E
:103E30007B681B681B6803F48023002B1DD07B6804
:103E40001B681B6803F40023002B0DD17B685B6C9F
:103E5000002B31D07B685B6C786898472CE000BF02
:103E600008000020B5814E1B7B68DB6B002B23D044
:103E70007B68DB6B786898471EE07B681B681B6873
:103E800003F48073002B0FD17B681B681A687B6872
:103E90001B6822F010021A607B68012283F835202B
:103EA0007B68002283F834207B68DB6B002B03D017
:103EB0007B68DB6B786898477B685B6D002B32D042
:103EC0007B685B6D03F00103002B22D07B68052229
:103ED00083F835207B681B681A687B681B6822F0B2
:103EE00001021A60BB680133BB607A699A4207D34A
:103EF0007B681B681B6803F00103002BF2D100E014
:103F000000BF7B68012283F835207B68002283F89C
:103F100034207B68DB6C002B05D07B68DB6C786819
:103F2000984700E000BF1837BD4680BD80B483B01D
:103F300000AF78607B685B6D18460C37BD465DF856
:103F4000047B704780B485B000AFF860B9607A60D8
:103F50003B60FB681B681A68FB681B6822F48022C0
:103F60001A60FB681B683A685A60FB689B68402BC4
:103F700008D1FB681B687A689A60FB681B68BA689E
:103F8000DA6007E0FB681B68BA689A60FB681B6828
:103F90007A68DA6000BF1437BD465DF8047B70476D
:103FA00080B485B000AF78607B681B68DBB2103BE3
:103FB000144AA2FB03231B09FB60134AFB6813444A
:103FC0001B781A467B68DA65FB68032B09D97B6886
:103FD0001B6823F47F7323F003031A1D7B689A6523
:103FE00007E07B681B6823F47F7323F003037A6880
:103FF00093657B689B6D18461437BD465DF8047B5E
:10400000704700BFABAAAAAAB083000880B485B0ED
:1040100000AF78600023FB737B689B6ABB607B68A2
:104020009B69002B1FD1BB68032B56D801A252F805
:1040300023F000BF454000085740000845400008F5
:10404000DB4000087B68DB6A03F08073002B46D0FE
:104050000123FB7343E07B68DB6AB3F1C07F40D18F
:104060000123FB733DE07B689B69B3F5005F21D1C1
:10407000BB68032B37D801A252F823F08D4000080B
:10408000934000088D400008A54000080123FB7301
:1040900030E07B68DB6A03F08073002B25D00123BE
:1040A000FB7322E07B68DB6AB3F1C07F1FD1012381
:1040B000FB731CE0BB68022B03D9BB68032B03D046
:1040C00018E00123FB7315E07B68DB6A03F0807363
:1040D000002B0ED00123FB730BE000BF0AE000BFF2
:1040E00008E000BF06E000BF04E000BF02E000BF40
:1040F00000E000BFFB7B18461437BD465DF8047B2B
:10410000704700BF80B489B000AF78603960002389
:104110007B6100233B610023BB610023FB616BE1FA
:104120000122FB6902FA03F37B613B681B687A6931
:1041300013403B613A697B699A4240F05A813B687F
:104140005B6803F00303012B05D03B685B6803F059
:104150000303022B30D17B689B68BB61FB695B006A
:10416000032202FA03F3DB43BA691340BB613B68E5
:10417000DA68FB695B0002FA03F3BA691343BB61B7
:104180007B68BA699A607B685B68BB610122FB69E6
:1041900002FA03F3DB43BA691340BB613B685B6817
:1041A0001B0903F00102FB6902FA03F3BA69134326
:1041B000BB617B68BA695A603B685B6803F00303C4
:1041C000032B17D07B68DB68BB61FB695B000322B4
:1041D00002FA03F3DB43BA691340BB613B689A6898
:1041E000FB695B0002FA03F3BA691343BB617B68A6
:1041F000BA69DA603B685B6803F00303022B23D1E2
:10420000FB69DA087B68083253F82230BB61FB692E
:1042100003F007039B000F2202FA03F3DB43BA69A2
:104220001340BB613B681A69FB6903F007039B00FD
:1042300002FA03F3BA691343BB61FB69DA087B68CE
:104240000832B96943F822107B681B68BB61FB69BF
:104250005B00032202FA03F3DB43BA691340BB613C
:104260003B685B6803F00302FB695B0002FA03F33F
:10427000BA691343BB617B68BA691A603B685B68C3
:1042800003F44033002B00F0B4800023FB60604B4C
:104290005B6C5F4A43F4804353645D4B5B6C03F497
:1042A0008043FB60FB685B4AFB699B08023352F862
:1042B0002330BB61FB6903F003039B000F2202FA6A
:1042C00003F3DB43BA691340BB617B68524A9342F4
:1042D0002BD07B68514A934225D07B68504A934249
:1042E0001FD07B684F4A934219D07B684E4A934255
:1042F00013D07B684D4A93420DD07B684C4A934261
:1043000007D07B684B4A934201D107230EE0082374
:104310000CE006230AE0052308E0042306E003235B
:1043200004E0022302E0012300E00023FA6902F026
:10433000030292009340BA691343BB613549FB699C
:104340009B080233BA6941F823203B4B9B68BB6151
:104350003B69DB43BA691340BB613B685B6803F4AC
:104360008013002B03D0BA693B691343BB61324A07
:10437000BB699360304BDB68BB613B69DB43BA6967
:104380001340BB613B685B6803F40013002B03D050
:10439000BA693B691343BB61274ABB69D360264BAB
:1043A0005B68BB613B69DB43BA691340BB613B6837
:1043B0005B6803F40033002B03D0BA693B691343F5
:1043C000BB611D4ABB6953601B4B1B68BB613B69EA
:1043D000DB43BA691340BB613B685B6803F480331D
:1043E000002B03D0BA693B691343BB61124ABB6916
:1043F0001360FB690133FB61FB690F2B7FF690AE05
:1044000000BF00BF2437BD465DF8047B704700BF86
:104410000038024000380140000002400004024021
:1044200000080240000C024000100240001402404C
:1044300000180240001C0240003C014080B586B0DC
:1044400000AF78607B68002B01D1012367E27B68B5
:104450001B6803F00103002B75D0884B9B6803F0A9
:104460000C03042B0CD0854B9B6803F00C03082B2A
:1044700012D1824B5B6803F48003B3F5800F0BD13C
:104480007E4B1B6803F40033002B5BD07B685B68BA
:10449000002B57D1012342E27B685B68B3F5803F74
:1044A00006D1764B1B68754A43F4803313601DE0D8
:1044B0007B685B68B3F5A02F0CD1704B1B686F4A0B
:1044C00043F4802313606D4B1B686C4A43F48033C4
:1044D00013600BE0694B1B68684A23F48033136058
:1044E000664B1B68654A23F4802313607B685B6816
:1044F000002B13D0FEF77EFB386108E0FEF77AFB55
:1045000002463B69D31A642B01D9032307E25B4BB4
:104510001B6803F40033002BF0D014E0FEF76AFBB5
:10452000386108E0FEF766FB02463B69D31A642B4C
:1045300001D90323F3E1514B1B6803F40033002B33
:10454000F0D100E000BF7B681B6803F00203002B82
:1045500063D04A4B9B6803F00C03002B0BD0474BF6
:104560009B6803F00C03082B1CD1444B5B6803F4DD
:104570008003002B16D1414B1B6803F00203002B74
:1045800005D07B68DB68012B01D00123C7E13B4BE1
:104590001B6823F0F8027B681B69DB003749134373
:1045A0000B603AE07B68DB68002B20D0344B0122A3
:1045B0001A60FEF71FFB386108E0FEF71BFB02469E
:1045C0003B69D31A022B01D90323A8E12B4B1B68AB
:1045D00003F00203002BF0D0284B1B6823F0F802F5
:1045E0007B681B69DB00254913430B6015E0244BF6
:1045F00000221A60FEF7FEFA386108E0FEF7FAFAC8
:1046000002463B69D31A022B01D9032387E11B4BD6
:104610001B6803F00203002BF0D17B681B6803F0DA
:104620000803002B36D07B685B69002B16D0154B36
:1046300001221A60FEF7DEFA386108E0FEF7DAFAC6
:1046400002463B69D31A022B01D9032367E10B4BC6
:104650005B6F03F00203002BF0D01BE0094B00223C
:104660001A60FEF7C7FA38610EE0FEF7C3FA024699
:104670003B69D31A022B07D9032350E100380240CB
:1046800000004742800E4742884B5B6F03F00203F5
:10469000002BEAD17B681B6803F00403002B00F0B9
:1046A00097800023FB75814B1B6C03F08053002B1C
:1046B0000FD10023BB607D4B1B6C7C4A43F08053C1
:1046C00013647A4B1B6C03F08053BB60BB680123FF
:1046D000FB75774B1B6803F48073002B18D1744B68
:1046E0001B68734A43F480731360FEF783FA3861E2
:1046F00008E0FEF77FFA02463B69D31A022B01D984
:1047000003230CE16A4B1B6803F48073002BF0D089
:104710007B689B68012B06D1644B1B6F634A43F097
:10472000010313671CE07B689B68052B0CD15F4B72
:104730001B6F5E4A43F0040313675C4B1B6F5B4ABD
:1047400043F0010313670BE0584B1B6F574A23F0EC
:1047500001031367554B1B6F544A23F0040313677F
:104760007B689B68002B15D0FEF744FA38610AE09D
:10477000FEF740FA02463B69D31A41F2883293426F
:1047800001D90323CBE0494B1B6F03F00203002B3D
:10479000EED014E0FEF72EFA38610AE0FEF72AFAAE
:1047A00002463B69D31A41F28832934201D903236E
:1047B000B5E03E4B1B6F03F00203002BEED1FB7DF7
:1047C000012B05D1394B1B6C384A23F080531364FD
:1047D0007B689B69002B00F0A180344B9B6803F041
:1047E0000C03082B5CD07B689B69022B41D1314BB9
:1047F00000221A60FEF7FEF9386108E0FEF7FAF9C8
:1048000002463B69D31A022B01D9032387E0274BC9
:104810001B6803F00073002BF0D17B68DA697B68BA
:104820001B6A1A437B685B6A9B011A437B689B6A1D
:104830005B08013B1B041A437B68DB6A1B061B49B0
:1048400013434B601B4B01221A60FEF7D3F938610A
:1048500008E0FEF7CFF902463B69D31A022B01D9D3
:1048600003235CE0114B1B6803F00073002BF0D0B6
:1048700054E0104B00221A60FEF7BCF9386108E0E2
:10488000FEF7B8F902463B69D31A022B01D903237C
:1048900045E0064B1B6803F00073002BF0D13DE0B0
:1048A0007B689B69012B07D1012338E00038024067
:1048B00000700040600047421B4B5B68FB607B68F8
:1048C0009B69012B28D0FB6803F480027B68DB69BD
:1048D0009A4221D1FB6803F03F027B681B6A9A422F
:1048E0001AD1FA6847F6C07313407A68526A920187
:1048F000934211D1FB6803F440327B689B6A5B08EA
:10490000013B1B049A4207D1FB6803F070627B688D
:10491000DB6A1B069A4201D0012300E000231846FF
:104920001837BD4680BD00BF0038024080B584B056
:1049300000AF786039607B68002B01D10123CCE0A7
:10494000684B1B6803F007033A689A420CD9654B21
:104950003A68D2B21A70634B1B6803F007033A68D7
:104960009A4201D00123B8E07B681B6803F0020380
:10497000002B20D07B681B6803F00403002B05D0BC
:10498000594B9B68584A43F4E05393607B681B681B
:1049900003F00803002B05D0534B9B68524A43F4A5
:1049A00060439360504B9B6823F0F0027B689B68E8
:1049B0004D4913438B607B681B6803F00103002B98
:1049C00044D07B685B68012B07D1474B1B6803F41D
:1049D0000033002B19D101237FE07B685B68022B39
:1049E00003D07B685B68032B07D13F4B1B6803F048
:1049F0000073002B09D101236FE03B4B1B6803F0D0
:104A00000203002B01D1012367E0374B9B6823F0A1
:104A100003027B685B68344913438B60FEF7EAF856
:104A2000F8600AE0FEF7E6F80246FB68D31A41F2A6
:104A30008832934201D903234FE02B4B9B6803F04C
:104A40000C027B685B689B009A42EBD1254B1B688C
:104A500003F007033A689A420CD2224B3A68D2B26A
:104A60001A70204B1B6803F007033A689A4201D082
:104A7000012332E07B681B6803F00403002B08D09D
:104A8000194B9B6823F4E0527B68DB68164913439B
:104A90008B607B681B6803F00803002B09D0124B66
:104AA0009B6823F460427B681B69DB000E4913435B
:104AB0008B6000F021F802460B4B9B681B0903F04A
:104AC0000F030A49CB5C22FA03F3094A1360094B2E
:104AD0001B681846FEF75EF8002318461037BD46DF
:104AE00080BD00BF003C02400038024098830008AF
:104AF000080000200C0000202DE9B04F94B000AF5A
:104B000000237B640023FB6400233B640023BB641D
:104B1000794B9B6803F00C03082B0DD0082B00F297
:104B2000E180002B02D0042B03D0DBE0734BBB648D
:104B3000DBE0734BBB64D8E06F4B5B6803F03F0373
:104B40007B646D4B5B6803F48003002B63D06A4B7E
:104B50005B689B090022BB63FA63BB6BC3F308036A
:104B60003B6300237B63D7E90C4522462B464FF07D
:104B700000004FF00001590141EAD26150010246A4
:104B80000B462146511A3961294663EB01037B61CB
:104B90004FF000024FF00003D7E904AB59468B01F8
:104BA000514643EA916351468A015146B2EB0108EE
:104BB000594663EB01094FF000024FF000034FEA42
:104BC000C90343EA58734FEAC80290469946234600
:104BD00018EB0303BB602B4649EB0303FB604FF06C
:104BE00000024FF00003D7E9024529464B02214657
:104BF00043EAD15321464A02104619467B6C0022F3
:104C0000BB62FA62D7E90A23FBF750FE02460B4665
:104C10001346FB6458E0384B5B689B09002218463A
:104C20001146C0F308033B6200237B62D7E9088981
:104C300042464B464FF000004FF00001590141EA57
:104C4000D261500102460B464146B2EB010A494689
:104C500063EB010B4FF000024FF000034FEA8B13A0
:104C600043EA9A634FEA8A12B2EB0A0463EB0B053C
:104C70004FF000024FF00003EB0043EA5473E200F0
:104C800014461D464346E3183B604B4645EB030381
:104C90007B604FF000024FF00003D7E90045294642
:104CA0008B02214643EA915321468A021046194657
:104CB0007B6C0022BB61FA61D7E90623FBF7F6FDA6
:104CC00002460B461346FB640B4B5B681B0C03F060
:104CD000030301335B003B64FA6C3B6CB2FBF3F300
:104CE000BB6402E0054BBB6400BFBB6C1846503789
:104CF000BD46BDE8B08F00BF003802400024F4007C
:104D000000127A0080B400AF034B1B681846BD4602
:104D10005DF8047B704700BF0800002080B500AF3D
:104D2000FFF7F0FF0246054B9B689B0A03F0070361
:104D30000349CB5C22FA03F3184680BD00380240D9
:104D4000A883000880B500AFFFF7DCFF0246054BE3
:104D50009B685B0B03F007030349CB5C22FA03F368
:104D6000184680BD00380240A883000880B582B094
:104D700000AF78607B68002B01D1012341E07B68A4
:104D800093F83D30DBB2002B06D17B68002283F81C
:104D90003C207868FDF776FD7B68022283F83D2091
:104DA0007B681A687B6804331946104600F098FD4A
:104DB0007B68012283F846207B68012283F83E202D
:104DC0007B68012283F83F207B68012283F8402022
:104DD0007B68012283F841207B68012283F842200E
:104DE0007B68012283F843207B68012283F84420FA
:104DF0007B68012283F845207B68012283F83D20EF
:104E0000002318460837BD4680BD80B582B000AF8C
:104E100078607B68002B01D1012341E07B6893F827
:104E20003D30DBB2002B06D17B68002283F83C20AA
:104E3000786800F039F87B68022283F83D207B68AF
:104E40001A687B6804331946104600F049FD7B68F8
:104E5000012283F846207B68012283F83E207B688C
:104E6000012283F83F207B68012283F840207B6881
:104E7000012283F841207B68012283F842207B686D
:104E8000012283F843207B68012283F844207B6859
:104E9000012283F845207B68012283F83D2000230E
:104EA00018460837BD4680BD80B483B000AF786037
:104EB00000BF0C37BD465DF8047B704780B586B0F7
:104EC00000AFF860B9607A607B800023FB75BB6837
:104ED000002B09D1FB6893F83E30DBB2022B0CBFEC
:104EE00001230023DBB222E0BB68042B09D1FB685D
:104EF00093F83F30DBB2022B0CBF01230023DBB25F
:104F000015E0BB68082B09D1FB6893F84030DBB291
:104F1000022B0CBF01230023DBB208E0FB6893F8EF
:104F20004130DBB2022B0CBF01230023DBB2002B8C
:104F300001D0022371E1BB68002B09D1FB6893F813
:104F40003E30DBB2012B0CBF01230023DBB222E099
:104F5000BB68042B09D1FB6893F83F30DBB2012B0F
:104F60000CBF01230023DBB215E0BB68082B09D17D
:104F7000FB6893F84030DBB2012B0CBF0123002308
:104F8000DBB208E0FB6893F84130DBB2012B0CBFC9
:104F900001230023DBB2002B24D07B68002B02D03E
:104FA0007B88002B01D1012337E1BB68002B04D1A2
:104FB000FB68022283F83E2016E0BB68042B04D174
:104FC000FB68022283F83F200EE0BB68082B04D167
:104FD000FB68022283F8402006E0FB68022283F887
:104FE000412001E0012318E1BB680C2B00F2AE80E8
:104FF00001A252F823F000BF2D5000084D510008C7
:105000004D5100084D510008755000084D510008E1
:105010004D5100084D510008BD5000084D51000889
:105020004D5100084D51000805510008FB685B6AAE
:105030007C4ADA63FB685B6A7B4A1A64FB685B6ADA
:105040007A4ADA64FB68586A7968FB681B6834330B
:105050001A467B88FEF7F6FC0346002B01D001239D
:10506000DBE0FB681B68DA68FB681B6842F40072CF
:10507000DA606EE0FB689B6A6A4ADA63FB689B6AE7
:10508000694A1A64FB689B6A684ADA64FB68986A32
:105090007968FB681B6838331A467B88FEF7D2FCB8
:1050A0000346002B01D00123B7E0FB681B68DA68D8
:1050B000FB681B6842F48062DA604AE0FB68DB6AE6
:1050C000584ADA63FB68DB6A574A1A64FB68DB6A92
:1050D000564ADA64FB68D86A7968FB681B683C3317
:1050E0001A467B88FEF7AEFC0346002B01D0012355
:1050F00093E0FB681B68DA68FB681B6842F4006297
:10510000DA6026E0FB681B6B464ADA63FB681B6BC0
:10511000454A1A64FB681B6B444ADA64FB68186BE7
:105120007968FB681B6840331A467B88FEF78AFC67
:105130000346002B01D001236FE0FB681B68DA688F
:10514000FB681B6842F48052DA6002E00123FB75C1
:1051500000BFFB7D002B5FD1FB681B680122B96893
:10516000184600F0ADFEFB681B68314A934204D03C
:10517000FB681B682F4A934201D1012300E0002302
:10518000002B07D0FB681B685A6CFB681B6842F455
:1051900000425A64FB681B68254A934222D0FB6890
:1051A0001B68B3F1804F1DD0FB681B68224A9342F5
:1051B00018D0FB681B68214A934213D0FB681B6818
:1051C0001F4A93420ED0FB681B681A4A934209D0CB
:1051D000FB681B681B4A934204D0FB681B681A4A91
:1051E000934211D1FB681B689B6803F007033B6186
:1051F0003B69062B10D0FB681B681A68FB681B68AC
:1052000042F001021A6007E0FB681B681A68FB683D
:105210001B6842F001021A60FB7D18461837BD4634
:1052200080BD00BFD1570008795800083F570008DB
:10523000000001400004014000040040000800405C
:10524000000C0040004001400018004080B584B0D0
:1052500000AF786039600023FB733B680C2B55D896
:1052600001A252F823F000BF9D5200080D53000820
:105270000D5300080D530008B95200080D530008E3
:105280000D5300080D530008D55200080D530008B7
:105290000D5300080D530008F15200087B681B688D
:1052A000DA687B681B6822F40072DA607B685B6AEC
:1052B0001846FEF78FFC2CE07B681B68DA687B6879
:1052C0001B6822F48062DA607B689B6A1846FEF7EE
:1052D00081FC1EE07B681B68DA687B681B6822F42F
:1052E0000062DA607B68DB6A1846FEF773FC10E048
:1052F0007B681B68DA687B681B6822F48052DA607E
:105300007B681B6B1846FEF765FC02E00123FB730C
:1053100000BFFB7B002B61D17B681B6800223968D2
:10532000184600F0CDFD7B681B682F4A934204D0DD
:105330007B681B682D4A934201D1012300E00023C2
:10534000002B17D07B681B681A6A41F211131340B7
:10535000002B0FD17B681B681A6A40F2444313404C
:10536000002B07D17B681B685A6C7B681B6822F492
:1053700000425A647B681B681A6A41F21113134099
:10538000002B0FD17B681B681A6A40F2444313401C
:10539000002B07D17B681B681A687B681B6822F0AA
:1053A00001021A603B68002B04D17B68012283F85C
:1053B0003E2013E03B68042B04D17B68012283F874
:1053C0003F200BE03B68082B04D17B68012283F867
:1053D000402003E07B68012283F84120FB7B1846D4
:1053E0001037BD4680BD00BF0000014000040140F1
:1053F00080B586B000AFF860B9607A600023FB75B5
:10540000FB6893F83C30012B01D10223AEE0FB682E
:10541000012283F83C207B680C2B00F29F8001A2C4
:1054200052F823F0595400085D5500085D550008F6
:105430005D550008995400085D5500085D55000849
:105440005D550008DB5400085D5500085D550008F7
:105450005D5500081B550008FB681B68B9681846B5
:1054600000F0E4FAFB681B689A69FB681B6842F06D
:1054700008029A61FB681B689A69FB681B6822F046
:1054800004029A61FB681B689969BB681A69FB682A
:105490001B680A439A6164E0FB681B68B968184698
:1054A00000F034FBFB681B689A69FB681B6842F4D8
:1054B00000629A61FB681B689A69FB681B6822F4AA
:1054C00080629A61FB681B689969BB681B691A0254
:1054D000FB681B680A439A6143E0FB681B68B96874
:1054E000184600F089FBFB681B68DA69FB681B68DB
:1054F00042F00802DA61FB681B68DA69FB681B6826
:1055000022F00402DA61FB681B68D969BB681A697A
:10551000FB681B680A43DA6123E0FB681B68B96813
:10552000184600F0DDFBFB681B68DA69FB681B6846
:1055300042F40062DA61FB681B68DA69FB681B6889
:1055400022F48062DA61FB681B68D969BB681B6959
:105550001A02FB681B680A43DA6102E00123FB754B
:1055600000BFFB68002283F83C20FB7D18461837FB
:10557000BD4680BD80B584B000AF7860396000233F
:10558000FB737B6893F83C30012B01D10223B4E01C
:105590007B68012283F83C207B68022283F83D204F
:1055A0007B681B689B68BB60BB6823F07703BB60AC
:1055B000BB6823F47F43BB607B681B68BA689A6052
:1055C0003B681B68B3F5005F3ED0B3F5005F00F2A7
:1055D0008780B3F5805F00F08680B3F5805F7FD869
:1055E000702B1AD0702B7BD8602B50D0602B77D8C3
:1055F000502B3CD0502B73D8402B58D0402B6FD819
:10560000302B64D0302B6BD8202B60D0202B67D868
:10561000002B5CD0102B5AD062E07B6818683B6886
:1056200099683B685A683B68DB6800F029FC7B6836
:105630001B689B68BB60BB6843F07703BB607B68FB
:105640001B68BA689A604FE07B6818683B68996885
:105650003B685A683B68DB6800F012FC7B681B689B
:105660009A687B681B6842F480429A603CE07B68E1
:1056700018683B6859683B68DB681A4600F086FB8F
:105680007B681B685021184600F0DFFB2CE07B682C
:1056900018683B6859683B68DB681A4600F0A5FB50
:1056A0007B681B686021184600F0CFFB1CE07B681C
:1056B00018683B6859683B68DB681A4600F066FB6F
:1056C0007B681B684021184600F0BFFB0CE07B683C
:1056D0001A683B681B681946104600F0B6FB03E0E9
:1056E0000123FB7300E000BF7B68012283F83D20AB
:1056F0007B68002283F83C20FB7B18461037BD46B0
:1057000080BD80B483B000AF786000BF0C37BD4669
:105710005DF8047B704780B483B000AF786000BF51
:105720000C37BD465DF8047B704780B483B000AF92
:10573000786000BF0C37BD465DF8047B704780B5CC
:1057400084B000AF78607B689B6BFB60FB685B6A32
:105750007A689A4207D1FB6801221A77FB68012216
:1057600083F83E202AE0FB689B6A7A689A4207D158
:10577000FB6802221A77FB68012283F83F201DE0B4
:10578000FB68DB6A7A689A4207D1FB6804221A77C1
:10579000FB68012283F8402010E0FB681B6B7A68ED
:1057A0009A4207D1FB6808221A77FB68012283F826
:1057B000412003E0FB68012283F83D20F868FFF7F1
:1057C000B4FFFB6800221A7700BF1037BD4680BDCA
:1057D00080B584B000AF78607B689B6BFB60FB6832
:1057E0005B6A7A689A420BD1FB6801221A777B6860
:1057F000DB69002B36D1FB68012283F83E2031E0C3
:10580000FB689B6A7A689A420BD1FB6802221A777E
:105810007B68DB69002B25D1FB68012283F83F20E0
:1058200020E0FB68DB6A7A689A420BD1FB680422AD
:105830001A777B68DB69002B14D1FB68012283F89F
:1058400040200FE0FB681B6B7A689A420AD1FB6824
:1058500008221A777B68DB69002B03D1FB680122E1
:1058600083F84120F868FFF74CFFFB6800221A77A5
:1058700000BF1037BD4680BD80B584B000AF7860F2
:105880007B689B6BFB60FB685B6A7A689A4203D11A
:10589000FB6801221A7719E0FB689B6A7A689A42D2
:1058A00003D1FB6802221A7710E0FB68DB6A7A6892
:1058B0009A4203D1FB6804221A7707E0FB681B6B4E
:1058C0007A689A4202D1FB6808221A77F868FFF7D3
:1058D00022FFFB6800221A7700BF1037BD4680BD4B
:1058E00080B485B000AF786039607B681B68FB606E
:1058F0007B68434A934213D07B68B3F1804F0FD04B
:105900007B68404A93420BD07B683F4A934207D062
:105910007B683E4A934203D07B683D4A934208D15C
:10592000FB6823F07003FB603B685B68FA68134315
:10593000FB607B68324A93422BD07B68B3F1804F87
:1059400027D07B682F4A934223D07B682E4A93420C
:105950001FD07B682D4A93421BD07B682C4A934210
:1059600017D07B682B4A934213D07B682A4A934214
:105970000FD07B68294A93420BD07B68284A934218
:1059800007D07B68274A934203D07B68264A93421C
:1059900008D1FB6823F44073FB603B68DB68FA685E
:1059A0001343FB60FB6823F080023B685B69134391
:1059B000FB603B689A687B68DA623B681A687B68C0
:1059C0009A627B680E4A934203D07B68104A9342E6
:1059D00003D13B681A697B681A637B681B6843F0D4
:1059E00004027B681A607B6801225A617B68FA684E
:1059F0001A6000BF1437BD465DF8047B704700BFD6
:105A0000000001400004004000080040000C00407D
:105A100000040140004001400044014000480140B2
:105A200000180040001C00400020004080B487B0F7
:105A300000AF786039607B681B6A7B617B681B6A9A
:105A400023F001027B681A627B685B683B617B68BC
:105A50009B69FB60FB6823F07003FB60FB6823F02D
:105A60000303FB603B681B68FA681343FB607B69B8
:105A700023F002037B613B689B687A6913437B6177
:105A80007B68204A934203D07B681F4A93420CD123
:105A90007B6923F008037B613B68DB687A69134309
:105AA0007B617B6923F004037B617B68154A934229
:105AB00003D07B68144A934211D13B6923F480736D
:105AC0003B613B6923F400733B613B685B693A6966
:105AD00013433B613B689B693A6913433B617B68B5
